:020000040800F2
:1000000030050020A1010008AB1D0008D91B000825
:10001000A91D0008D1020008A92600080000000060
:10002000000000000000000000000000591F000850
:10003000D302000800000000AD1D00085B1F00088F
:10004000BB010008BB010008BB010008BB010008A0
:10005000BB010008BB010008BB010008BB01000890
:10006000BB010008D502000809030008BB01000815
:10007000BB010008BB010008BB010008BB01000870
:10008000BB010008BB010008BB010008BB01000860
:10009000BB010008BB010008BB0100080F030008FA
:1000A000BB010008BB010008BB010008BB01000840
:1000B000BB0100080000000000000000BB010008B8
:1000C000BB010008BB010008BB010008BB01000820
:1000D000BB010008BB0100089D260008BB01000809
:1000E000BB010008BB010008000000000000000088
:1000F0000000000000000000000000000000000000
:1001000000000000BB01000800000000BB01000867
:100110000000000000000000E51F0008BB0100080F
:10012000BB010008BB010008BB010008BB010008BF
:10013000BB010008000000000000000000000000FB
:10014000BB010008BB010008BB0100080000000063
:10015000BB010008BB010008BB010008BB0100088F
:10016000BB010008BB010008BB0100080000000043
:10017000BB010008BB0100080000000000000000F7
:10018000BB010008BB010008BB010008DFF80CD070
:1001900000F08CF8004800470128000830050020D6
:1001A0000648804706480047FEE7FEE7FEE7FEE711
:1001B000FEE7FEE7FEE7FEE7FEE7FEE7D51F0008E5
:1001C0008D0100082DE9F05F0546002092469B4610
:1001D00088460646814640241BE02846414647465D
:1001E000224600F052F853465A46C01A914110D3A5
:1001F00011461846224600F039F82D1A67EB01081F
:100200004F4622460120002100F030F817EB00098C
:100210004E41201EA4F10104DFDC484631462A4647
:10022000434600F000B830BCBDE8C09FD2B201E048
:1002300000F8012B491EFBD270470022F6E710B5EB
:1002400013460A4604461946FFF7F0FF204610BD44
:1002500010B5002200E0521C835C8C5CA34201D1EB
:10026000002BF8D1D8B2E1B2401A10BD202A04DB2D
:10027000203A00FA02F1002070479140C2F12003B9
:1002800020FA03F3194390407047202A04DB203AF8
:1002900021FA02F00021704721FA02F3D040C2F1A6
:1002A000200291400843194670470000064C074D54
:1002B00006E0E06840F0010394E807009847103436
:1002C000AC42F6D3FFF766FFEC2800080C290008C3
:1002D000FEE7704710B5082000F016F9322000F054
:1002E0006DF80821064800F006FA01284FF00800D2
:1002F00002D00449086010BDBDE8104000F004B908
:100300000004004814040140102000F0FDB810B5AE
:10031000202000F0F9F8BDE81040402000F0F4B8CB
:1003200072B6FEE710B590F825100022022905D01C
:100330000421C16380F82420012010BD01680B68EE
:1003400023F00E030B6001680B6823F001030B60C0
:1003500090F84410046C01F01C03012101FA03F32E
:10036000636080F8251080F82420104610BD10B579
:1003700090F825100024022903D00421C163012430
:100380001AE001680A6822F00E020A6001680A6831
:1003900022F001020A6090F84410036C01F01C0284
:1003A000012101FA02F25A6080F82510002180F83C
:1003B0002410816B01B18847204610BD70B50446FA
:1003C00000F0ACF90546601C02D0044800780444F3
:1003D00000F0A4F9401BA042FAD370BD1400002025
:1003E00010B510280DD008281FD0202822D0402872
:1003F00025D1002001F01CFC11A0BDE8104002F046
:1004000055B915A002F052F919A002F04FF91FA03A
:1004100002F04CF920A002F049F922A002F046F9BE
:1004200024A002F043F927A0E7E7002001F0EAFB4F
:1004300029A0E2E7002001F0D1FB2DA0DDE710BDEF
:10044000746865206B6579342069732070726573F8
:1004500073200D0A00000000746865206B65793117
:10046000206973207072657373200D0A000000000C
:10047000796F752063616E20696E70757420796F75
:100480007572206F726465723A0D0A004C45442003
:100490004F4E0D0A000000004C4544204F46460DCB
:1004A0000A0000004C454420546F6F676C650D0ACC
:1004B000000000004C454420466C617368696E671B
:1004C0000D0A00004C45442053746F7020466C6147
:1004D0007368696E670D0A00746865206B65793210
:1004E000206973207072657373200D0A000000008C
:1004F000746865206B657933206973207072657349
:1005000073200D0A00000000044910B50A68024279
:1005100002D00860FFF764FF10BD00001404014022
:100520002DE9F04FDFF8AC9100230325A9F1040B6E
:1005300085B04FF0010C0F2709F1040AABF1040E4E
:10054000BFE000BF0CFA03F6324075D00C7904F01E
:100550000304012C01D0022C1BD1846800945C00A0
:1005600005FA04F80494009C24EA08040094D1F8E5
:100570000C80049C08FA04F8009C48EA0408C0F8BF
:1005800008804468B4430E79C6F300169E402643A3
:1005900046600C79E443A4070AD0C4684FEA4308D4
:1005A00005FA08F6B4438E6806FA08F62643C660D4
:1005B0000C7904F00304022C10D1DC0800EB840455
:1005C0000294246A5E074FEAD66807FA08F6B44335
:1005D0000E6906FA08F62643029C266204684FEA72
:1005E000430805FA08F6B4430E7906F0030606FA46
:1005F00008F6264306604C6814F4403F60D0364C41
:10060000266E46F001062666246E23F0030604F0EB
:1006100001040094314C34440294A4689E074FEACC
:10062000167807FA08F6B443B0F1904F05D02C4E77
:10063000B04204D1012612E042E000260FE0294E2C
:10064000B04201D102260AE0274EB04201D1032672
:1006500005E0264EB04201D1042600E0072606FA46
:1006600008F62643029CA660D9F800604C46D1F8F3
:10067000048096435FEAC82800D516432660DAF85E
:1006800000405646D1F8048094435FEA882800D59C
:1006900014433460DBF800405E46D1F80480944394
:1006A0005FEA883800D514433460DEF800407646AF
:1006B000D1F8048094435FEAC83800D5144334600D
:1006C0005B1C0A6832FA03F47FF43CAF05B000F01B
:1006D0000FB8000008040140001002400000014073
:1006E0000004004800080048000C004800100048C2
:1006F00030BCBDE8C08F0069084000D001207047C1
:10070000426921EA02030A4043EA024181617047DB
:100710000AB18161704781627047000001488068BA
:1007200070470000140000200248816802781144DC
:10073000816070471400002010B50024032000F0F1
:1007400071F8002000F008F808B1012401E000F081
:1007500025F8204610BD000070B50E4E0546002459
:10076000307898B14FF47A71B1FBF0F00A4909681A
:10077000B1FBF0F000F0CAFD40B9102D06D2002206
:100780002946501E00F02EF8756000E00124204636
:1007900070BD00001400002020000020094808B5AA
:1007A000016E41F001010166016E01F0010100914D
:1007B000816D41F080518165806D00F08050009026
:1007C00008BD000000100240002809DB00F01F02F5
:1007D000012191404009800000F1E020C0F80011A3
:1007E00070470000F0B40E4B1B680C46C3F30223A5
:1007F000C3F10705042D00D90425191D072901D2CD
:10080000002300E0DB1E012606FA05F1491E214007
:1008100099409E40761E16403143F0BC01F056BF11
:100820000CED00E0064900F0070208684FF6FF03F0
:10083000184040EA0220034A104308607047000055
:100840000CED00E00000FA051649B0F5007F0868DD
:10085000C0F3412009D0022805D0086820F4C06008
:1008600040F480600860002070470128FBD00868D1
:1008700020F4C06040F4007008600B483222006829
:1008800050430A4AB0FBF2F0401C00E0401E4A69A7
:10089000520501D50028F9D148694005E3D5032068
:1008A00070470000007000402000002040420F0010
:1008B0000248006800F4C06070470000007000400B
:1008C0002DE9F84F044600270088A84D3E46000554
:1008D00015D5606C60B1B0F5000F04D0B0F5400FD5
:1008E0002BD001270AE0E86840F48030E86024E07B
:1008F0000021201D01F05CFA07001ED03E46206852
:1009000080033AD5A86D4FF00008C00009D4A86D47
:1009100040F08050A865A86D4FF0010800F08050AD
:100920000090DFF84CA2DAF8001041F48071CAF8A8
:100930000010FFF7F3FE814610E0D5F88800616CE7
:1009400020F440000843C5F88800D8E7FFF7E6FE2A
:10095000A0EB0900022801D9032705E0DAF800001E
:10096000C005F3D5002F7DD04FEA0706B8F1000F80
:1009700003D0A86D20F08050A8652078C00707D06C
:10098000D5F88800216A20F003000843C5F88800E4
:100990002078800707D5D5F88800616A20F00C0020
:1009A0000843C5F888002078400707D5D5F88800A7
:1009B000A16A20F030000843C5F88800207880063E
:1009C00007D5D5F88800E16A20F440600843C5F8EF
:1009D00088002088800507D5D5F88800E16B20F4D1
:1009E00040200843C5F888002088400507D5D5F881
:1009F0008800216C20F440100843C5F88800207856
:100A0000400607D5D5F88800216B20F440500843F4
:100A1000C5F888002078000607D5D5F88800616BF6
:100A200020F440400843C5F888002088C00507D559
:100A3000D5F88800A16B20F440300843C5F8880041
:100A400020684FF0006700034FF0806850D5D5F85C
:100A50008800A16C20F040600843C5F88800A06CB5
:100A6000B84200E005E03BD1E86840F48010E8605F
:100A70003EE0D5F8900010F4407014D0A16D814292
:100A800011D0D5F89000D5F8901020F4407041F4C2
:100A90008031C5F89010D5F8901021F48031C5F858
:100AA0009010C5F89000C00711D0FFF737FE074639
:100AB00041F2883907E000BFFFF730FEC11B49450E
:100AC00001D9032652E7D5F890008007F4D5D5F870
:100AD0009000A16D20F440700843C5F8900045E7F0
:100AE000404505D10121201D01F062F900B1064603
:100AF0002068400317D5D5F88800E16C20F04060ED
:100B00000843C5F88800E06CB84204D1E86840F4B6
:100B10008010E86007E0404505D10121201D01F06B
:100B200047F900B106462088400411D5D5F8880061
:100B3000216D20F040500843C5F88800206DB0F1C9
:100B4000805F05D10221201D01F032F900B1064677
:100B50002088000406D555F8880F616D20F080408C
:100B600008432860304600F005B80000001002403D
:100B70000070004018BCBDE8E08F00002DE9F04790
:100B80000F4605006BD0494E306800F00700B842B0
:100B900009D2306820F0070038433060306800F038
:100BA0000700B8425BD12878414C80070AD5A86875
:100BB000A16801F0F001884204D9A16821F0F00198
:100BC0000143A1602878C0072CD06868032811D0A1
:100BD000022812D0216898B1490500293FDAA1689E
:100BE00021F003010143A160FFF798FD804641F227
:100BF000883910E021688901EFE721688903ECE773
:100C00008907EAE7FFF78AFDA0EB0801494502D909
:100C10000320BDE8F087A068696800F00C00B0EB25
:100C2000810FEFD1287880070AD5A868A16801F064
:100C3000F001884204D2A16821F0F0010143A160D3
:100C4000306800F00700B8420BD9306820F0070088
:100C500038433060306800F00700B84201D001200E
:100C6000D7E72878400705D5A068E96820F4E06058
:100C70000843A0602878000706D5A068296920F4F9
:100C8000605040EAC100A06000F03EF8A168094A47
:100C9000C1F30311515C01F01F01C840064908600F
:100CA00006480068BDE8F047FFF756BD0020024047
:100CB00000100240A4280008200000201800002096
:100CC0000548064900688968054AC1F30221515C5C
:100CD00001F01F01C84070472000002000100240B2
:100CE000E42800080548064900688968054AC1F3F8
:100CF000C221515C01F01F01C84070472000002054
:100D000000100240E428000870B525490023184669
:100D10008A68CC6812F00C0204F00306214C4FEAFA
:100D2000640509D00C2A05D0042A32D0082A00D143
:100D3000284670BD012E10D10B681B0704D4D1F8D2
:100D40009430C3F3032302E00B68C3F30313164E7E
:100D500056F82330DAB10C2AEBD1C86800F0030052
:100D6000022818D0032818D01846CA68CB68C2F3E6
:100D70000212C3F306234343521CB3FBF2F2C868CA
:100D8000C0F34160401C4000B2FBF0F070BD18465B
:100D900070BD204670BD2046E7E72846E5E7000025
:100DA000001002400024F400B42800082DE9F843A4
:100DB00004006FD0FA4DA86800F00C06E86800F057
:100DC00003072078C00664D576B10C2E01D1012F1F
:100DD0000AD0A069002828687AD040F00100286075
:100DE000FFF79CFC80465DE02868800702D5A0697B
:100DF0000028DED0216A2868000703D5286800F0A3
:100E0000F00004E0D5F89400F02202EA10108142CC
:100E100016D9084601F062F800283BD1286840F056
:100E2000080028602868216A20F0F0000843286044
:100E30006868E16920F47F4040EA0120686016E0BC
:100E4000286840F0080028602868216A20F0F00037
:100E5000084328606868E16920F47F4040EA012087
:100E6000686026B9206A01F039F80028D5D1FFF76B
:100E70004BFFA968CB4AC1F30311515C01F01F017C
:100E8000C840C9490860C9480068FFF765FC0028E8
:100E90007ED12EE0CAE000BFFFF740FCA0EB0800C7
:100EA000022876D828688007F6D5286840F0080020
:100EB00028602868216A20F0F000084328606868EC
:100EC000E16920F47F4040EA0120686011E0FFE71B
:100ED00020F001002860FFF721FC804606E000BFFB
:100EE000FFF71CFCA0EB08000228DAD8286880076E
:100EF000F6D42078C00740D0082E18D00C2E01D18F
:100F0000032F14D06068B0F5803F17D0B0F5A02F44
:100F1000286817D020F480302860286820F48020CA
:100F200028606068E0B1FFF7F9FB804614E02868AC
:100F3000800322D56068002878D01EE0286840F43D
:100F40008030EDE740F480202860F7E7FFF7E6FB0C
:100F5000A0EB08006428A4D828688003F6D50CE02C
:100F6000FFF7DCFB804605E0FFF7D8FBA0EB0800AD
:100F7000642896D828688003F6D4207880073BD56B
:100F8000042E11D00C2E01D1022F0DD0E06801E00B
:100F9000AAE1FFE0002828681ED040F48070286095
:100FA000FFF7BCFB07460CE0286840050CD5E0685D
:100FB0000028C1D008E000BFFFF7B0FBC01B02282B
:100FC00093D828684005F7D56868217C20F0F85050
:100FD00040EA016068600FE020F480702860FFF74D
:100FE0009DFB074605E000BFFFF798FBC01B0228EA
:100FF000B1D828684005F7D42078000729D5606962
:101000000028D5F8940012D040F00100C5F89400F3
:10101000FFF784FB074604E0FFF780FBC01B0228B4
:1010200099D8D5F894008007F6D512E02BE120F08E
:101030000100C5F89400FFF771FB074605E000BF0B
:10104000FFF76CFBC01B022885D8D5F894008007F9
:10105000F6D42078400766D5A86D0027C00008D4D4
:10106000A86D40F08050A865A86D012700F0805061
:1010700000904F480168C90512D40168814641F4C7
:1010800080710160FFF74AFB804605E0FFF746FBF1
:10109000A0EB080002287DD8D9F80000C005F5D5DE
:1010A000A068012816D00528D5F8900017D020F0A8
:1010B0000100C5F89000D5F8900020F0040000BFB2
:1010C000C5F89000A06841F28839C0B1FFF726FB4F
:1010D00080460FE0D5F8900040F00100F0E740F0C6
:1010E0000400C5F89000F5E7FFF718FBA0EB080136
:1010F00049454FD8D5F890008007F5D50EE0FFF7A9
:101100000DFB804606E000BFFFF708FBA0EB0801DF
:1011100049453FD8D5F890008007F5D41FB1A86D98
:1011200020F08050A8652078800628D5606A0028C5
:10113000D5F8980012D040F00100C5F89800FFF7EC
:10114000EDFA074605E000BFFFF7E8FAC01B0228EA
:1011500020D8D5F898008007F6D510E020F00100DF
:10116000C5F89800FFF7DAFA074604E0FFF7D6FA69
:10117000C01B02280ED8D5F898008007F6D4A06AC4
:10118000F0B3022816D00C2E7DD0286820F0807095
:10119000286000E0A7E0FFF7C1FA0446A6E00000DF
:1011A00000100240A42800082000002018000020A1
:1011B00000700040E868E26A00F00301914228D123
:1011C000216B00F0700209011039914221D1626B4C
:1011D00000F4FE41B1EB022F1BD194F8382000F04F
:1011E0007841B1EBC26F14D1A18F00F4C00249085D
:1011F0004905A1F5001191420BD194F8401000E08F
:101200006AE04908490600F0C060A1F1007181421E
:101210004BD00C2E73D02868400170D4286820F081
:1012200080702860FFF77AFA064604E0FFF776FA46
:10123000801B022857D828688001F7D4F4E90B01F5
:101240006FF00F0202EB01110843218A5204490892
:1012500002EB4151A26841EA02210843217D4FF08F
:101260007E42490802EB41610843217B40EAC160AC
:10127000E968244A11400843E860286840F080701B
:101280002860E86800E03AE040F08070E860FFF72E
:1012900045FA044605E000BFFFF740FA001B0228AC
:1012A00021D828688001F7D527E02868800124D458
:1012B000286840F080702860E86840F08070E8603E
:1012C000FFF72CFA044604E0FFF728FA001B022877
:1012D00009D828688001F7D50FE000BFFFF71EFA94
:1012E000001B022802D90320BDE8F883286880018A
:1012F000F4D4E86804490840E8600020F4E70120DD
:10130000F2E700008C809D01FCFFEEFE10B5401E50
:10131000B0F1807F01D3012010BD4FF0E024606167
:101320000F21601701F0D2F90020A0610720206191
:10133000002010BD7047704770470000F0B590F86E
:101340003C20012A29D0012480F83C40022280F868
:101350003D2003685A689D68114EB34203D122F4C0
:1013600070074A683A4322F070070A683A435A60A5
:101370000268B24205D0B2F1804F02D0094B9A42C6
:1013800004D1896825F080031943916080F83D40BD
:10139000002180F83C100846F0BD0220F0BD00009E
:1013A000002C01400040014010B5040003D094F827
:1013B0003D0010B107E0012010BD002084F83C0082
:1013C000204600F023F8022084F83D00211D20680B
:1013D00000F00EFE012084F8480084F83E0084F8F6
:1013E0003F0084F8400084F8410084F8420084F80B
:1013F000430084F8440084F8450084F8460084F8EB
:10140000470084F83D00002010BD000008B50068CA
:101410000B49884212D10B48816D41F01001816562
:10142000806D002200F01000009011463620FFF77A
:10143000D9F9BDE808403620FFF7C6B908BD00005D
:10144000001000400010024090F83D10012901D02A
:1014500001207047022180F83D100168CA6842F0FF
:101460000102CA6000680B49884205D0B0F1804F84
:1014700002D00949884207D18168084A11400629EB
:1014800006D0B1F5803F03D0016841F00101016051
:1014900000207047002C014000400140070001007F
:1014A000704770B50446006801694FF00005C943F4
:1014B000890715D4C168C943890711D4E91E0161A0
:1014C00001202077206880698007204602D0FFF73E
:1014D000E7FF04E000F0A7F8204600F0A5F8257724
:1014E00020680169C943490717D4C168C94349073E
:1014F00013D46FF004010161022020772068806915
:1015000010F4407F204602D0FFF7CAFF04E000F04D
:101510008AF8204600F088F8257720680169C943D9
:10152000090716D4C168C943090712D46FF008012E
:101530000161042020772068C0698007204602D01E
:10154000FFF7AEFF04E000F06EF8204600F06CF804
:10155000257720680169C943C90617D4C168C94302
:10156000C90613D46FF010010161082020772068AC
:10157000C06910F4407F204602D0FFF791FF04E0DD
:1015800000F051F8204600F04FF8257720680169F7
:10159000C943C90708D1C168C943C90704D1891E15
:1015A0000161204600F042F820680169C94309063C
:1015B00009D4C168C943090605D46FF080010161EF
:1015C0002046FFF7B8FE20680169C943C90509D460
:1015D000C168C943090605D46FF4807101612046D2
:1015E000FFF7A8FE20680169C943490609D4C1680C
:1015F000C943490605D46FF040010161204600F05F
:1016000025F820680169C94389060BD4C168C9431C
:10161000890607D46FF0200101612046BDE87040C3
:10162000FFF78ABE70BD704770470000006805492B
:10163000884206D104480078002802D0022000F039
:10164000F7BA704700100040000000207047704754
:10165000704770472DE9F04102680446D06911686F
:10166000936840F60F0528424FF0000505D1860625
:101670007ED58E067CD5616E1BE1994F03F0010685
:101680000F40374374D0C70709D0CF0507D50127CE
:101690001762D4F8802042F00102C4F8802082074B
:1016A0000AD5DA0708D0276802223A62D4F88020E7
:1016B00042F00402C4F8802042070AD5DA0708D0B5
:1016C000236804221A62D4F8802042F00202C4F88F
:1016D000802002070CD501F02002324308D0236895
:1016E00008221A62D4F8802042F00802C4F8802050
:1016F00002050BD54A0109D523684FF400621A622E
:10170000D4F8802042F02002C4F88020D4F8802051
:10171000002A35D0800605D5880603D5616E09B14B
:1017200020468847D4F8800021688968490602D499
:1017300010F0280F26D0204600F02CFD206880688D
:1017400040061AD52068083050E8001F21F04001FB
:1017500040E80012002AF5D1206F70B16149816321
:10176000206FFEF704FE00280AD0206F816B01E095
:101770000EE02046BDE8F04108472046FFF769FF2C
:10178000BDE8F0812046FFF764FFC4F88050F7E71A
:10179000276E2026012F7BD1C70679D5CF0677D5B6
:1017A0001020106220688068400641D5216F0868CB
:1017B00040680004000CE3D0B4F858208242DFD91E
:1017C000A4F85A000868006880062AD4206850E807
:1017D000001F21F4807140E80012002AF6D1206831
:1017E000083050E8001F21F0010140E80012002AF3
:1017F000F5D12068083050E8001F21F0400140E892
:101800000012002AF5D1E6672566216851E8000F2D
:1018100020F0100041E80002002AF6D1206FFEF708
:1018200081FDB4F85800B4F85A10401A81B22AE089
:10183000B4F85800B4F85A10401A81B2B4F85A00FB
:1018400000289DD000299BD0226852E8000F20F488
:10185000907042E80003002BF6D12068083050E871
:10186000002F22F0010240E80023002BF5D1E667AB
:1018700025666566226852E8000F20F0100042E8F5
:101880000003002BF6D12046FFF7E1FE78E7FFE7E3
:10189000C70209D55B0207D54FF4801010622046BD
:1018A000BDE8F041FFF7D4BE020606D50A0604D50E
:1018B000A16E00297FF45DAF62E74006E6D54806D9
:1018C000E4D52046026852E8001F21F0400142E8BA
:1018D0000013002BF6D18667856600F07CF94FE790
:1018E000200100048121000810B5040002D0A06F7F
:1018F00010B107E0012010BD002084F874002046DC
:1019000000F026F82420A0672068016821F001017A
:101910000160204600F002FD0128ECD0606A10B1A1
:10192000204600F09BFB2068416821F49041416013
:101930002068816821F02A0181602068016841F0F7
:10194000010101602046BDE8104000F0EBBB000043
:1019500030B59DB00446142117A8FEF76EFC5C213B
:101960006846FEF76AFC1A49206888422ED1022494
:101970000025684609950094FEF7A2FF08B1FEF71E
:10198000CFFC1448816D41F400318165816D01F413
:1019900000311C91C16C41F00101C164C06C17A9F8
:1019A00000F001001C900C2081E8310003201A9007
:1019B00007201B904FF09040FEF7B2FD002201215E
:1019C0002620FEF70FFF2620FEF7FEFE1DB030BDDD
:1019D000004400400010024030B4C36F202B20D1DF
:1019E000E1B1DAB190F87430012B1AD0012380F8FC
:1019F0007430002303660C4C0368A3420BD05B6871
:101A00001B0208D5046854E8003F43F0806344E8B3
:101A10000035002DF6D130BC00F080BD012030BC77
:101A200070470220FBE700000080004070B52749A6
:101A3000054627484A880B7883544C780D2C01D1F1
:101A40000A2B09D0521C4A804B702846BDE87040D2
:101A500001221E49FFF7C0BF00248454104400F83F
:101A6000014C4C800C704C7019491AA000F01EFEFD
:101A700019A000F01BFE19A11548FEF7E9FBB0B153
:101A800018A11348FEF7E4FBA8B118A11048FEF70F
:101A9000DFFBA0B118A10E48FEF7DAFB1A4E90B199
:101AA0001AA10B48FEF7D4FB0028CED134700220D7
:101AB00000F0A8F8C9E7022000F090F8C5E702207E
:101AC00000F0B6F8C1E701203070BEE70E0000203C
:101AD00074000020257300000D0A00004C454420CE
:101AE0004F4E00004C4544204F4646004C45442094
:101AF000546F67676C6500004C454420466C617309
:101B000068696E6700000000000000204C4544201A
:101B100053746F7020466C617368696E67000000D3
:101B20002DE9F8430446806F1F4616460D462028CF
:101B30004FD1CDB1C6B194F87400012849D001202D
:101B400084F874004FF00008C4F880802120A0675A
:101B5000FEF7E4FDA4F850608146A4F85260A06846
:101B6000B0F5805F03D004E00120BDE8F883206970
:101B700028B12E465FF0000584F8748010E000263E
:101B8000FAE78021204600F025FDB8B9C6B116F865
:101B9000010B21680885B4F85200401EA4F85200D9
:101BA000B4F852004B464FF0000200970028E8D1ED
:101BB0004FF04001204600F00DFD30B10320D4E786
:101BC00035F8020BC0F30800E3E72020A0670020EF
:101BD000CBE70220C9E77047FEE70000084B40B1A1
:101BE000012809D002280AD1012201021846FEF775
:101BF0008FBD01228021F9E701221102F6E770472B
:101C000000040048094B40B1012809D002280BD13B
:101C1000002201021846FEF77BBD00228021F9E771
:101C200000224FF48071F5E770470000000400487F
:101C3000074A38B1012807D0022808D1010210460E
:101C4000FEF75EBD8021FAE74FF48071F7E7704739
:101C5000000400482DE9F04186B014216846FEF7E3
:101C6000ECFA2D48C16C41F00101C164C16C01F076
:101C700001010591C16C41F00201C164C06C48F2E0
:101C8000E00400F002004FF0904705900122214649
:101C90003846FEF73DFDDFF884804FF46076012280
:101CA00031464046FEF734FD0125CDE900450024CC
:101CB0000294694638460394FEF732FC782000907F
:101CC0004FF4881001900220029069464046FEF7CA
:101CD00027FC0096CDE90154694640460394FEF77F
:101CE0001FFC002201210920FEF77CFD0920FEF7E0
:101CF0006BFD002201210A20FEF774FD0A20FEF789
:101D000063FD002201211720FEF76CFD1720FEF76E
:101D10005BFD06B0BDE8F081001002400004004801
:101D20003EB500241048009401940E4902940160CD
:101D30004BF67F31C0E9011440F2E731C1608021E8
:101D40008161FFF731FB08B1FEF7EAFA00946946BA
:101D500005480294FFF7F2FA002801D0FEF7E0FAF6
:101D60003EBD000000100040280000200D4810B5C6
:101D70000B4901604FF4E1314160002181600C2288
:101D8000C160C0E904128161C16101624162FFF773
:101D9000ABFD002803D0BDE81040FEF7C1BA10BD6E
:101DA00000440040A8000020FEE7FEE77047000066
:101DB0002DE9F041444C05468846E068002681073D
:101DC00028680DD0E16801F00301814216D1A8B165
:101DD000E0686968C0F30210401C88420ED120E020
:101DE000012804D0022805D0032807D108E0216883
:101DF000890701E021684905002907DB01265FE02A
:101E00002168890302D421684903F5E7E1686A681B
:101E10006FF00F0321F0730103EB02121143014332
:101E2000E160206820F080602060FEF777FC0746C4
:101E300005E000BFFEF772FCC01B022837D82068FF
:101E40000001F7D4B8F1000F18D0B8F1010F1DD080
:101E5000287D4FF07E41400801EB4060A96840EAD0
:101E600001202169194A114008432061206840F08F
:101E700080602060FEF752FC07461AE0A868297BC4
:101E8000000240EAC1602169114AECE7288A114941
:101E9000400801EB4050A96840EA012021690E4A40
:101EA000E1E700BFFEF73AFCC01B022801D9032678
:101EB00006E020680001F5D52069A9690843206182
:101EC0003046BDE8F081000000100240FF80FFF9BD
:101ED000FF80FF070000E0FFFF809FFFF8B51C4D6B
:101EE00006460024A86DC00002D5FEF7E1FC0DE017
:101EF000A86D40F08050A865A86D00F0805000905B
:101F0000FEF7D6FCA96D21F08051A965B0F5007FE0
:101F100004D0802E07D94FF003040AE0802E08D9A0
:101F2000A02E01D804E001D1022402E0702E00D1DD
:101F300001240848016821F007012143016000687D
:101F400000F00700A04201D00120F8BD0020F8BD3C
:101F500000100240002002407047FEF7E5BB10B5BC
:101F600096B044216846FEF768F9142111A8FEF7DF
:101F700064F94FF40070FEF767FC08B172B6FEE733
:101F8000102000900120002460210690CDE9074137
:101F90000221CDE90A100C9028200D900720CDE9F0
:101FA0000E0168461091FEF701FF08B172B6FEE718
:101FB0000F2011900320CDE912041494042111A8DC
:101FC0001594FEF7DBFD002801D072B6FEE716B0CF
:101FD00010BD00000248016841F4700101607047C3
:101FE00088ED00E00148FFF75CBA000028000020FF
:101FF00070B50268164B4FF08046984201D0B0424F
:1020000003D122F070044A682243124C124D9842C8
:1020100005D0B04203D0A04201D0A84203D122F49F
:102020004076CA6832434E6922F080023243026031
:102030008A68C2620A688262984203D0A04201D0D4
:10204000A84201D1096901630121416170BD00000D
:10205000002C0140004001400044014090F8241051
:10206000C90706D001684A68836A22F400321A431D
:102070004A6090F82410890706D501684A68C36A47
:1020800022F480321A434A6090F82410490706D59A
:1020900001684A68036B22F480221A434A6090F870
:1020A0002410090706D501684A68436B22F40042F0
:1020B0001A434A6090F82410C90606D501688A6858
:1020C000836B22F480521A438A6090F824108906A8
:1020D00006D501688A68C36B22F400521A438A60ED
:1020E00090F82410490611D501684A68036C22F45F
:1020F00080121A434A60016CB1F5801F06D1016855
:102100004A68436C22F4C0021A434A6090F82410D3
:10211000090606D501684A68806C22F40022024351
:102120004A607047F8B500260446C0F88060FEF7A4
:10213000F5FA0546206800686FF07E47000708D56D
:102140002B4600224FF400112046009700F042FA7F
:1021500060B92068006840070AD52B4600224FF47A
:1021600080012046009700F035FA08B10320F8BD41
:102170002020A067E067266684F874600020F8BD20
:1021800010B5806A0021A0F85A10A0F85210FFF78D
:1021900060FA10BD016851E8002F22F4907241E806
:1021A0000023002BF6D10168083151E8002F22F0FE
:1021B000010241E80023002BF5D1016E012908D16D
:1021C000026852E8001F21F0100142E80013002BC2
:1021D000F6D12021C167002101664166704710B524
:1021E000B0F85C20C36F0168222B04D0088B40F04C
:1021F0000800088310BD898C436D11401980416D22
:10220000891C4165B0F85A10491EA0F85A10B0F860
:102210005A100029EED1026852E8001F21F4907193
:1022200042E80013002BF6D10168083151E8002F75
:1022300022F0010241E80023002BF5D12021C167E3
:1022400000214166026E012A02D0FFF7EFFB10BDAC
:102250000166026852E8001F21F0100142E80013F5
:10226000002BF6D10168CA69D243D20601D41022EC
:102270000A62B0F85810FFF7EAF910BD10B5B0F8CF
:102280005C20C36F0168222B04D0088B40F008004B
:10229000088310BD898C1140426D1170416D491C3D
:1022A0004165B0F85A10491EA0F85A10B0F85A10FB
:1022B0000029EED1026852E8001F21F4907142E833
:1022C0000013002BF6D10168083151E8002F22F0ED
:1022D000010241E80023002BF5D12021C167002134
:1022E0004166026E012A02D0FFF7A0FB10BD016615
:1022F000026852E8001F21F0100142E80013002B91
:10230000F6D10168CA69D243D20601D410220A620A
:10231000B0F85810FFF79BF910BD00002DE9F0410F
:102320000446016880682269E369104362690025F8
:102330001A431043714F0A68714B1A4002430A60F6
:1023400020684168E26821F44051114341602168EE
:10235000A069B94201D0226A10438A6822F430622F
:1023600002438A606749236867488B420DD1D0F8E1
:10237000880010F0030006D0012847D0022843D07F
:10238000032830D144E001212EE060498B420BD17B
:10239000D0F8880010F00C0034D0042836D008287B
:1023A00032D00C281FD133E059498B420BD1D0F8E1
:1023B000880010F0300025D0102827D0202823D006
:1023C000302810D124E0BB420DD1D0F8880010F4A1
:1023D000406017D0B0F5806F18D0B0F5006F13D003
:1023E000B0F5406F14D010214A4A00264FF4004047
:1023F000BB422FD171B102290FD004290FD0082977
:1024000073D10FE00021EFE70221EDE70421EBE7B4
:102410000821E9E7FEF754FC03E0104602E0FEF76E
:1024200073FCE8B3626802EB420181425DD8B0EB15
:10243000023F5AD8010E03025008181871410023B8
:10244000FDF7C0FE344AA0F5407191424DD8216895
:10245000C8604BE0E3694FF6EF77834228D1092942
:1024600043D2DFE801F005080B420D424242100062
:10247000FEF726FC06E0FEF735FC03E0104602E01E
:10248000FEF742FC60B14100606801EB5001B1FB16
:10249000F0F0A0F11001B94227D84FF6F07100E03A
:1024A00024E00140C0F3420001432068C1601DE008
:1024B00009291AD2DFE801F005080B190D191919BD
:1024C0001000FEF7FDFB06E0FEF70CFC03E01046F3
:1024D00002E0FEF719FC48B1616800EB5100B0FB67
:1024E000F1F0A0F11001B94205D901256666284630
:1024F000A666BDE8F08180B2A9E700000080004038
:10250000F369FFEF00380140001002400044004032
:10251000004800400024F400FFFC0F0030B5416586
:10252000A0F85820A0F85A200022426681684FF493
:102530008055FF23A94204D1016971BB40F2FF110C
:1025400031E07F2439B3B1F1805F29D0A0F85C205D
:10255000C0F880202221C1670168083151E8003F9E
:1025600043F0010341E80034002CF5D18168A94211
:1025700001D10169E9B11549416680F8742001690A
:10258000C9B1026852E8001F41F4907142E800139B
:10259000002BF6D118E0016941B9A0F85C30D7E70B
:1025A000016919B13F21A0F85C10D1E7A0F85C40A7
:1025B000CEE70749E0E7026852E8001F41F020013A
:1025C00042E80013002BF6D1002030BD7D22000828
:1025D000DF2100082DE9F0479A4617460E460446CB
:1025E0004FF000094FF02008089D4AE0681C48D0D1
:1025F000FEF794F8A0EB0A00A8422AD84DB3206851
:10260000016849073DD5C069C043000539D4216838
:102610004FF400600862206850E8001F21F4D07178
:1026200040E80012002AF6D12068083050E8001F68
:1026300021F0010140E80012002AF5D1C4F87880A9
:10264000C4F87C80C4F8808084F874900320BDE8CE
:10265000F087216851E8000F20F4D07041E80002B3
:10266000002AF6D12068083050E8001F21F001014F
:1026700040E80012002AF5D1C4F87880C4F87C80C4
:10268000E2E72068C06936EA000004D00020B842C2
:10269000ACD00020DBE70120F9E700000148FEF79D
:1026A000D9BF0000A8000020FEE700000FB4054BD2
:1026B00010B503A9044A029800F027F810BC5DF891
:1026C00014FB0000E9270008240000200907090E78
:1026D000002804DB00F1E02080F80014704700F0CF
:1026E0000F0000F1E02080F8141D704702E008C8D8
:1026F000121F08C1002AFAD170477047002001E07C
:1027000001C1121F002AFBD170472DE9F84F9946ED
:10271000924688460546002706E025280AD05146FD
:102720004A4690476D1C7F1C28780028F5D1384612
:1027300000F056B8002315F8011F18462E2915D1B0
:1027400015F8011F04232A290DD06FF02F022978D4
:10275000A1F13004092C09D800EB800002EB400005
:1027600008446D1CF3E758F8040B6D1C2A78002A06
:10277000DDD0632A07D0732A0FD0104651464A464F
:1027800090477F1C2AE018F8042B8DF800200021C8
:102790008DF801106E46012103E058F8046B4FF0EC
:1027A000FF315A074FF0000401D409E0641C844251
:1027B0000BDA8C42FADB325D002AF7D105E0641CAB
:1027C0008C42FCDB305D0028F9D1274404E016F888
:1027D000010B51464A469047641EF8D26D1CA3E790
:1027E00018BCBDE8E08F000013B5FF230122694645
:1027F0000248FFF795F900981CBD0000A8000020D2
:10280000FDF79AFFFFF7ABFBFFF724FAFFF7AEFAED
:10281000FFF786FA1748FEF717FEFFF7A0FBFFF752
:1028200019FAFFF7A3FAFFF77BFA0120FFF7EAF99D
:102830004FF4FA60FDF7C2FD0120FFF7CFF9012246
:10284000D1034FF09040FDF763FF0BA0FFF72EFF81
:10285000FF230D220C490D48FFF762F9FF230D22DB
:102860000BA10A48FFF75CF901220D490748FFF761
:10287000B3F8FEE728000020757361727420697355
:10288000206F6B0D0A00000001000020A80000204E
:10289000756172742074657374320D0A0000000053
:1028A0000E000020000000000000000001020304F0
:1028B00006070809A0860100400D0300801A0600E3
:1028C00000350C0040420F0080841E0000093D00CE
:1028D00000127A000024F40000366E010048E8017E
:1028E000006CDC0200000000010203040C29000857
:1028F0000000002028000000EC2600083429000811
:102900002800002008050000FC2600080075617200
:10291000742074657374200D0A000000000000002C
:1029200001000000100000000000000000093D0050
:0429300000000000A3
:040000050800018D61
:00000001FF
